:020000020000FC
:040000000084001464
:040001001001483A68
:0400020010BFF8042F
:0400030000BFFD1627
:040004000040003484
:040005000840081493
:040006000800683A4C
:0400070000000000F5
:04000800008200145E
:0400090010000033B0
:04000A0010BFF80427
:04000B0000BFFD161F
:04000C0006C000F436
:04000D00DEC000143D
:04000E00068000F474
:04000F00D688481433
:04001000008000B4B8
:0400110010AAD41449
:0400120000C000B476
:0400130018EB0614CC
:0400140010C00326EF
:0400150010000015C2
:040016001080010451
:0400170010FFFD36A3
:040018000031883AF1
:0400190000248D0032
:04001A00D6200017D5
:04001B0000249EC05F
:04001C00003FFF069C
:04001D00DEFFF60408
:04001E00DE00012ED1
:04001F00003B68FA40
:04002000DFC009151F
:04002100DF000815DF
:04002200DF000804EF
:04002300E13FFC15A8
:04002400E17FFD1566
:04002500E1BFFE1524
:04002600E1FFFF15E2
:04002700E0BFFF1720
:0400280010800270D2
:040029001000021EA3
:04002A0000BFFA8495
:04002B0000002306A8
:04002C00E0BFFF171B
:04002D0010BFFFC43D
:04002E00108001CC71
:04002F001004933AEC
:040030001007883AF3
:04003100E0BFFD1718
:040032001080FFCC6F
:040033001884B03A43
:04003400E0BFF90D23
:04003500E0BFF90B24
:040036001004D23AA6
:04003700E0BFFB0526
:04003800E0BFF90B21
:04003900E0BFFB45E4
:04003A00E0FFFB04E4
:04003B00E0BFFF170C
:04003C00D880001553
:04003D00E13FFC178C
:04003E00180B883AD9
:04003F0001800084B8
:04004000E1FFFE17C7
:04004100001B5E80C2
:04004200E0BFFA150C
:04004300E0BFFA1709
:040044001000090E91
:04004500010000B402
:04004600211A710406
:04004700E17FFA1744
:04004800001F818094
:04004900010000B4FE
:04004A00211A7504FE
:04004B00001F818091
:04004C00E0BFFA1700
:04004D0000000106A8
:04004E000005883AE7
:04004F00E037883AD4
:04005000DFC00117F5
:04005100DF000017B5
:04005200DEC0020406
:04005300F800283A4F
:04005400DEFFFA04CD
:04005500DE00012E9A
:04005600003B68FA09
:04005700DFC00515EC
:04005800DF000415AC
:04005900DF000404BC
:04005A00E13FFE156F
:04005B00E17FFF152D
:04005C00E0BFFD0400
:04005D00E13FFE176A
:04005E00E17FFF1728
:04005F00100D883ABE
:0400600001C0004497
:040061000000074054
:04006200E0BFFC15EA
:04006300E0BFFC17E7
:040064001000020E78
:04006500E0BFFC17E5
:04006600000002068E
:04006700E0BFFD03F6
:0400680010803FCCF9
:04006900E037883ABA
:04006A00DFC00117DB
:04006B00DF0000179B
:04006C00DEC00204EC
:04006D00F800283A35
:04006E00DEFFF804B5
:04006F00DE00012E80
:04007000003B68FAEF
:04007100DFC00715D0
:04007200DF00061590
:04007300DF000604A0
:04007400E13FFC1557
:04007500E17FFD1515
:04007600E1BFFE15D3
:04007700E1FFFF1591
:04007800E0BFFE17D0
:040079001000021E53
:04007A0000BFFA8445
:04007B000000170664
:04007C00E0BFFB04E2
:04007D00E13FFC174C
:04007E00E17FFD170A
:04007F00100D883A9E
:0400800001C0004477
:040081000000074034
:04008200E0BFFA15CC
:04008300E0BFFA17C9
:040084001000020E58
:04008500E0BFFA17C7
:0400860000000C0664
:04008700E0BFFE17C1
:040088001007883A9B
:04008900E0BFFB03D6
:04008A001884703A2C
:04008B00E0BFFB05D2
:04008C00E0BFFB03D3
:04008D0010C03FCC94
:04008E00E0BFFF17B9
:04008F001885D83ABE
:04009000E0BFFB05CD
:04009100E0BFFB03CE
:0400920010803FCCCF
:04009300E037883A90
:04009400DFC00117B1
:04009500DF00001771
:04009600DEC00204C2
:04009700F800283A0B
:04009800DEFFF7048C
:04009900DE00012E56
:04009A00003B68FAC5
:04009B00DFC00815A5
:04009C00DF00071565
:04009D00DF00070475
:04009E00E13FFD152C
:04009F00E17FFE15EA
:0400A000E1BFFF15A8
:0400A100E0BFFE17A7
:0400A2001080FFCCFF
:0400A3001007883A80
:0400A40000A00004B4
:0400A5001884B03AD1
:0400A600E0BFFA0DB0
:0400A700E0BFFA0BB1
:0400A8001004D23A34
:0400A900E0BFFC05B3
:0400AA00E0BFFA0BAE
:0400AB00E0BFFC4571
:0400AC00E0BFFF179B
:0400AD00E0BFFC852F
:0400AE00E0BFFC04AF
:0400AF00D800001560
:0400B000E13FFD1718
:0400B100100B883A6E
:0400B200018000C405
:0400B300000F883A78
:0400B400001B5E804F
:0400B500E0BFFB1598
:0400B600E0BFFB1795
:0400B7001000090E1E
:0400B800010000B48F
:0400B900211A76048E
:0400BA00E17FFB17D0
:0400BB00001F818021
:0400BC00010000B48B
:0400BD00211A75048B
:0400BE00001F81801E
:0400BF00E0BFFB178C
:0400C0000000010635
:0400C1000005883A74
:0400C200E037883A61
:0400C300DFC0011782
:0400C400DF00001742
:0400C500DEC0020493
:0400C600F800283ADC
:0400C700DEFFF8045C
:0400C800DE00012E27
:0400C900003B68FA96
:0400CA00DFC0071577
:0400CB00DF00061537
:0400CC00DF00060447
:0400CD00E13FFC15FE
:0400CE00E17FFD15BC
:0400CF00E1BFFE157A
:0400D000E1FFFF1538
:0400D100E0BFFE1777
:0400D2001000021EFA
:0400D30000BFFA84EC
:0400D4000000210601
:0400D500E0BFFB0489
:0400D600E13FFC17F3
:0400D700E17FFD17B1
:0400D800100D883A45
:0400D90001C000441E
:0400DA0000000740DB
:0400DB00E0BFFA1573
:0400DC00E0BFFA1770
:0400DD001000020EFF
:0400DE00E0BFFA176E
:0400DF000000160601
:0400E000E0BFFE1768
:0400E1000084303A2D
:0400E2001007883A41
:0400E300E0BFFB037C
:0400E4001884703AD2
:0400E500E0BFFB0578
:0400E600E0BFFF1761
:0400E700E0C002175C
:0400E8001884983AA6
:0400E9001007883A3A
:0400EA00E0BFFE175E
:0400EB001884703ACB
:0400EC001007883A37
:0400ED00E0BFFB0372
:0400EE001884B03A88
:0400EF00E0BFFB056E
:0400F000E0BFFB036F
:0400F10010803FCC70
:0400F200E13FFC17D7
:0400F300E17FFD1795
:0400F400100D883A29
:0400F50000002600E1
:0400F600E037883A2D
:0400F700DFC001174E
:0400F800DF0000170E
:0400F900DEC002045F
:0400FA00F800283AA8
:0400FB00DEFFF4042C
:0400FC00DE00012EF3
:0400FD00003B68FA62
:0400FE00DFC00B153F
:0400FF00DF000A15FF
:04010000DF000A040E
:04010100E13FFC15C9
:04010200E17FFD1587
:04010300E1BFFE1545
:04010400E1FFFF1503
:04010500E0BFFF1741
:0401060010800270F3
:040107001000021EC4
:0401080000BFFA84B6
:0401090000002D06BF
:04010A00E0BFFF173C
:04010B0010BFFFC45E
:04010C00108001CC92
:04010D001004933A0D
:04010E001007883A14
:04010F00E0BFFD1739
:040110001080FFCC90
:040111001884B03A64
:040112001007883A10
:0401130000A0000444
:040114001884B03A61
:04011500E0BFF70D43
:04011600E0BFF70B44
:040117001004D23AC4
:04011800E0BFF90546
:04011900E0BFF70B41
:04011A00E0BFF94504
:04011B00E0BFF90444
:04011C0010800084CB
:04011D001009883A03
:04011E00E17FFE1768
:04011F00E1BFFF1726
:04012000001F52C0AA
:04012100E0BFFF1725
:0401220010800084C5
:04012300E0FFF904FC
:04012400D8000015EA
:04012500E13FFC17A3
:04012600180B883AF0
:04012700100D883AF5
:04012800000F883A02
:04012900001B5E80D9
:04012A00E0BFF81525
:04012B00E0BFF81722
:04012C001000090EA8
:04012D00010000B419
:04012E00211A760418
:04012F00E17FF8175D
:04013000001F8180AB
:04013100010000B415
:04013200211A750415
:04013300001F8180A8
:04013400E0BFF81719
:0401350000000106BF
:040136000005883AFE
:04013700E037883AEB
:04013800DFC001170C
:04013900DF000017CC
:04013A00DEC002041D
:04013B00F800283A66
:04013C00DEFFF704E7
:04013D00DE00012EB1
:04013E00003B68FA20
:04013F00DF000815C0
:04014000DF000804D0
:04014100E13FFD1588
:04014200E17FFE1546
:04014300E1BFFF1504
:04014400E03FF9158A
:04014500E03FFA1588
:04014600E03FFC1585
:04014700E03FF81588
:04014800013FFFC4B0
:04014900E13FFB1582
:04014A0000001C068F
:04014B00E13FF81781
:04014C00E17FFD173B
:04014D002909883ABA
:04014E002100000389
:04014F0021003FCC80
:040150002000091E64
:04015100E13FFB1778
:04015200213FFFD872
:040153002000021E68
:04015400E13FF81778
:04015500E13FFB1576
:04015600E13FF91775
:04015700210000443F
:04015800E13FF91575
:0401590000000A0692
:04015A00E13FF91771
:04015B00E17FFA172F
:04015C002900040E64
:04015D00E13FF9176E
:04015E00E13FFA156E
:04015F00E13FFB176A
:04016000E13FFC156A
:04016100013FFFC497
:04016200E13FFB1569
:04016300E03FF9156B
:04016400E13FF81768
:040165002100004431
:04016600E13FF81568
:04016700E13FF81765
:04016800200F883AA2
:040169002009D7FA98
:04016A002011883A9E
:04016B00E13FFE175B
:04016C002005883AA8
:04016D000007883AC5
:04016E0040FFDC165C
:04016F001A00011E53
:0401700038BFDA3684
:04017100E0BFF917DB
:04017200E0FFFA1799
:040173001880040EDE
:04017400E0BFF917D8
:04017500E0BFFA15D8
:04017600E0BFFB17D4
:04017700E0BFFC15D4
:04017800E0FFFC1791
:04017900E0BFFF17CD
:04017A0010C000159C
:04017B00E0BFFA17D0
:04017C00E037883AA6
:04017D00DF00001788
:04017E00DEC00104DA
:04017F00F800283A22
:04018000DEFFFB049F
:04018100DE00012E6D
:04018200003B68FADC
:04018300DF00041580
:04018400DF00040490
:04018500E13FFD1544
:040186002805883A86
:04018700E1BFFF15C0
:04018800E0BFFE05D1
:04018900E0BFFD17BF
:04018A00108030179A
:04018B0010800003DD
:04018C0010803FCCD4
:04018D001000022636
:04018E00E0BFFF17B8
:04018F000000120654
:04019000E0BFFE03CB
:04019100100005262F
:04019200E0BFFD17B6
:040193001080301791
:0401940010800B17B5
:04019500E0BFFC15B6
:04019600000004065B
:04019700E0BFFD17B1
:04019800108030178C
:0401990010800A17B1
:04019A00E0BFFC15B1
:04019B00E0BFFC17AE
:04019C001080009837
:04019D001000031E2D
:04019E00E0BFFF17A8
:04019F001080004488
:0401A0000000010654
:0401A100E0BFFF17A5
:0401A200E037883A80
:0401A300DF00001762
:0401A400DEC00104B4
:0401A500F800283AFC
:0401A600DEFFFD0477
:0401A700DE00012E47
:0401A800003B68FAB6
:0401A900DFC002159C
:0401AA00DF0001155C
:0401AB00DF0001046C
:0401AC00E13FFF151B
:0401AD00E0BFFF1799
:0401AE001080301776
:0401AF0010805D1748
:0401B0001009883A70
:0401B100001B7A00B5
:0401B20010803FCCAE
:0401B30010001A26F8
:0401B400E0BFFF1792
:0401B500108030176F
:0401B60010805D1741
:0401B7001009883A69
:0401B800000B883A76
:0401B900001B8100A6
:0401BA0001000044FC
:0401BB00001B8DC0D8
:0401BC00E0BFFF178A
:0401BD001080301767
:0401BE0010805D1739
:0401BF001009883A61
:0401C00001400044B6
:0401C100001B81009E
:0401C20001000044F4
:0401C300001B8DC0D0
:0401C400010000B482
:0401C500211A7A047D
:0401C600014000B440
:0401C700295E6F043A
:0401C800001F818013
:0401C900010000B47D
:0401CA00211A75047D
:0401CB00001F818010
:0401CC000005883A68
:0401CD000000150613
:0401CE00E0BFFF1778
:0401CF001080011784
:0401D0001009883A50
:0401D100000B883A5D
:0401D2000180204444
:0401D3000000260002
:0401D400E0BFFF1772
:0401D500108001177E
:0401D6001009883A4A
:0401D700000B883A57
:0401D800000D883A54
:0401D90000002600FC
:0401DA00010000B46C
:0401DB00211A7D0464
:0401DC00014000B42A
:0401DD00295E6F0424
:0401DE00001F8180FD
:0401DF00010000B467
:0401E000211A750467
:0401E100001F8180FA
:0401E20000BFFB441B
:0401E300E037883A3F
:0401E400DFC0011760
:0401E500DF00001720
:0401E600DEC0020471
:0401E700F800283ABA
:0401E800DEFFF8043A
:0401E900DE00012E05
:0401EA00003B68FA74
:0401EB00DFC0071555
:0401EC00DF00061515
:0401ED00DC400515D8
:0401EE00DC00041518
:0401EF00DF00060423
:0401F000E13FFB15DB
:0401F100E17FFC1599
:0401F200E1BFFD1557
:0401F300E0BFFB1757
:0401F400144001179B
:0401F500E0BFFC1754
:0401F600100491BAA6
:0401F70014003FCCE5
:0401F800E0BFFC1751
:0401F900100491BAA3
:0401FA0010803FCC66
:0401FB001009883A25
:0401FC00001C830060
:0401FD001007883A25
:0401FE00E0BFFD174A
:0401FF00D88000158F
:040200008809883AA7
:040201000140008434
:04020200800D883AA9
:04020300180F883A0E
:04020400000031C005
:04020500E6FFFE040E
:04020600DFC003173B
:04020700DF000217FB
:04020800DC400117BE
:04020900DC000017FE
:04020A00DEC004044A
:04020B00F800283A95
:04020C00DEFFF80415
:04020D00DE00012EE0
:04020E00003B68FA4F
:04020F00DFC0071530
:04021000DF000615F0
:04021100DC400515B3
:04021200DC000415F3
:04021300DF000604FE
:04021400E13FFB15B6
:04021500E17FFC1574
:04021600E1BFFD1532
:04021700E0BFFB1732
:040218001440011776
:04021900E0BFFC172F
:04021A00100491BA81
:04021B0014003FCCC0
:04021C00E0BFFC172C
:04021D00100491BA7E
:04021E0010803FCC41
:04021F001009883A00
:04022000001C83003B
:040221001007883A00
:04022200E0BFFD1725
:04022300D88000156A
:040224008809883A83
:04022500014000C4D0
:04022600800D883A85
:04022700180F883AEA
:04022800000031C0E1
:04022900E6FFFE04EA
:04022A00DFC0031717
:04022B00DF000217D7
:04022C00DC4001179A
:04022D00DC000017DA
:04022E00DEC0040426
:04022F00F800283A71
:04023000DEFFFC04ED
:04023100DE00012EBC
:04023200003B68FA2B
:04023300DFC0031510
:04023400DF000215D0
:04023500DF000204E0
:04023600E13FFE1591
:040237002805883AD4
:04023800E0BFFF051F
:04023900E0BFFE170D
:04023A0010803017E9
:04023B00108000032C
:04023C001080005CD2
:04023D0010803FCC22
:04023E001000152671
:04023F00E0BFFE1707
:0402400010803017E3
:0402410010C00A17C8
:04024200E0BFFE1704
:0402430010803017E0
:0402440010800B1704
:0402450018800E26E9
:04024600E0BFFF0313
:040247001000042679
:04024800E0BFFE17FE
:0402490010803017DA
:04024A0010800A17FF
:04024B0000000306A6
:04024C00E0BFFE17FA
:04024D0010803017D6
:04024E0010800B17FA
:04024F00E13FFE1776
:04025000014000C4A5
:04025100100D883ACA
:0402520000007A002E
:0402530000000106A0
:040254000005883ADF
:04025500E037883ACC
:04025600DFC00117ED
:04025700DF000017AD
:04025800DEC00204FE
:04025900F800283A47
:04025A00DEFFFA04C5
:04025B00DE00012E92
:04025C00003B68FA01
:04025D00DFC00515E4
:04025E00DF000415A4
:04025F00DF000404B4
:04026000E13FFE1567
:04026100E17FFF1525
:04026200010000B4E3
:04026300211A8A04CE
:04026400014000B4A1
:04026500295E730497
:04026600E1BFFF17DE
:04026700001F818073
:04026800010000B4DD
:04026900211A7504DD
:04026A00001F818070
:04026B00E0BFFE17DB
:04026C0010800117E6
:04026D001009883AB2
:04026E000140FD440A
:04026F000000150076
:04027000E0BFFC15DA
:04027100E0BFFE17D5
:04027200E0FFFF1793
:0402730010C0711531
:04027400E0BFFF17D1
:0402750010C0006055
:040276001800141E3A
:0402770010C000A013
:040278001800361E16
:040279001000461E0D
:04027A00E13FFE174B
:04027B00000B883AB2
:04027C000014EE403C
:04027D00E13FFE1748
:04027E00000B883AAF
:04027F0000008C00EF
:04028000E0FFFC1788
:0402810000BFDF8457
:040282001884703A32
:04028300E0BFFC15C7
:04028400E0BFFE17C2
:0402850010800117CD
:040286001009883A99
:040287000140FD44F1
:04028800E1BFFC17BF
:04028900000026004B
:04028A000000360634
:04028B00E13FFE173A
:04028C00000B883AA1
:04028D000014EE402B
:04028E00E13FFE1737
:04028F0001400044E6
:0402900000008C00DE
:04029100E0BFFE17B5
:0402920010800117C0
:040293001009883A8C
:04029400014004849D
:040295000000150050
:04029600E0BFFD15B3
:04029700E0BFFD17B0
:040298001080010CC5
:040299001000072624
:04029A00E0BFFD17AD
:04029B001080020CC1
:04029C001000042624
:04029D00E0BFFC17AB
:04029E001080201498
:04029F00E0BFFC15AB
:0402A0000000040650
:0402A100E0FFFC1767
:0402A20000BFDFC4F6
:0402A3001884703A11
:0402A400E0BFFC15A6
:0402A500E0BFFC17A3
:0402A6001080005470
:0402A700E0BFFC15A3
:0402A800E0BFFE179E
:0402A90010800117A9
:0402AA001009883A75
:0402AB000140FD44CD
:0402AC00E1BFFC179B
:0402AD000000260027
:0402AE000000120634
:0402AF00E13FFE1716
:0402B00001400044C5
:0402B1000014EE4007
:0402B200E13FFE1713
:0402B300000B883A7A
:0402B40000008C00BA
:0402B500E0FFFC1753
:0402B60000BFDF8422
:0402B7001884703AFD
:0402B800E0BFFC1592
:0402B900E0BFFE178D
:0402BA001080011798
:0402BB001009883A64
:0402BC000140FD44BC
:0402BD00E1BFFC178A
:0402BE000000260016
:0402BF000000010634
:0402C00000BFFA84FD
:0402C100E037883A60
:0402C200DFC0011781
:0402C300DF00001741
:0402C400DEC0020492
:0402C500F800283ADB
:0402C600DEFFFD0456
:0402C700DE00012E26
:0402C800003B68FA95
:0402C900DF0002153B
:0402CA00DF0002044B
:0402CB00E13FFE15FC
:0402CC00E17FFF15BA
:0402CD00E0BFFE1779
:0402CE0010C07117D4
:0402CF00E0BFFF1776
:0402D00010C0001545
:0402D100E037883A50
:0402D200DF00001732
:0402D300DEC0010484
:0402D400F800283ACC
:0402D500DEFFFB0449
:0402D600DE00012E17
:0402D700003B68FA86
:0402D800DFC004156A
:0402D900DF0003152A
:0402DA00DF0003043A
:0402DB00E13FFE15EC
:0402DC00E17FFF15AA
:0402DD00E03FFD15EC
:0402DE00010000B467
:0402DF00211A8E044E
:0402E000014000B425
:0402E100295E790415
:0402E200E1BFFF1762
:0402E300001F8180F7
:0402E400010000B461
:0402E500211A750461
:0402E600001F8180F4
:0402E700E0BFFE175F
:0402E800E0FFFF171D
:0402E90010C07215BA
:0402EA00E0BFFF175B
:0402EB0010C00060DF
:0402EC001800061ED2
:0402ED000080032E5C
:0402EE00108000A0DC
:0402EF001000061ED7
:0402F00000000806FC
:0402F100E03FFD15D8
:0402F20000000606FC
:0402F3000080004443
:0402F400E0BFFD1555
:0402F50000000306FC
:0402F600008002443E
:0402F700E0BFFD1552
:0402F8000001883A3F
:0402F900E0BFFE174D
:0402FA001080011758
:0402FB001009883A24
:0402FC000140FD04BC
:0402FD00E1BFFD1749
:0402FE0000002600D6
:0402FF00E037883A22
:04030000DFC0011742
:04030100DF00001702
:04030200DEC0020453
:04030300F800283A9C
:04030400DEFFFD0417
:04030500DE00012EE7
:04030600003B68FA56
:04030700DF000215FC
:04030800DF0002040C
:04030900E13FFE15BD
:04030A00E17FFF157B
:04030B00E0BFFE173A
:04030C0010C0721794
:04030D00E0BFFF1737
:04030E0010C0001506
:04030F00E037883A11
:04031000DF000017F3
:04031100DEC0010445
:04031200F800283A8D
:04031300DEFFF6040F
:04031400DE00012ED8
:04031500003B68FA47
:04031600DFC0091526
:04031700DF000815E6
:04031800DF000804F6
:04031900E13FFC15AF
:04031A00E17FFD156D
:04031B00E1BFFE152B
:04031C00E1FFFF15E9
:04031D00E03FF815B0
:04031E00E03FF915AE
:04031F00010000B425
:04032000211A8E040C
:04032100014000B4E3
:04032200295E7E04CE
:04032300E1BFFD1722
:04032400001F8180B5
:04032500010000B41F
:04032600211A75041F
:04032700001F8180B2
:04032800E0BFFC171F
:04032900E0FFFD17DD
:04032A0010C0731577
:04032B00E0BFFC171C
:04032C00E0FFFE17D9
:04032D0010C0741573
:04032E00E0BFFC1719
:04032F00E0FFFF17D5
:0403300010C075156F
:04033100E0BFFC1716
:04033200E0C002170E
:0403330010C076156B
:04033400E0BFFD1712
:0403350010C0006094
:040336001800061E87
:040337000080032E11
:04033800108000A091
:0403390010000C1E86
:04033A0000001406A5
:04033B00E03FF91591
:04033C0000001206A5
:04033D00E0BFFC170A
:04033E0010802417F0
:04033F00E13FFC1787
:04034000100B883ADC
:04034100001BC900D4
:04034200E0BFF8150B
:0403430000800044F2
:04034400E0BFF91508
:0403450000000906A5
:04034600E0BFFC1701
:0403470010801F17EC
:04034800E13FFC177E
:04034900100B883AD3
:04034A00001BC900CB
:04034B00E0BFF81502
:04034C0000800244E7
:04034D00E0BFF915FF
:04034E000001883AE8
:04034F00E0BFF917FB
:040350001080009485
:04035100E0BFF915FB
:04035200E0BFFF17F2
:040353001009883ACB
:0403540001400184DF
:04035500001D7A40CD
:04035600108000CC47
:040357001004913AC3
:04035800E0FFF917B2
:040359001884B03A1A
:04035A00E0BFF915F2
:04035B00E0BFFE17EA
:04035C0010800128E4
:04035D001000071E67
:04035E00E0BFFE17E7
:04035F00100491BA3B
:0403600010803FCCFE
:04036100E0FFF917A9
:040362001884B03A11
:04036300E0BFF915E9
:04036400000010067F
:04036500E0BFF817E6
:0403660010000E264F
:04036700E0BFFE17DE
:040368001006917A70
:04036900E0BFF817E2
:04036A001004D07A31
:04036B001885883A2F
:04036C001009883AB2
:04036D00E17FF8171D
:04036E00001D7A40B4
:04036F0010BFFFC4F8
:04037000100491BA2A
:0403710010803FCCED
:04037200E0FFF91798
:040373001884B03A00
:04037400E0BFF915D8
:0403750000800F04F1
:04037600E0BFFA15D5
:04037700E080021709
:040378001085883A2A
:040379001085883A29
:04037A001007883AA6
:04037B00E0BFFA17CE
:04037C001884703A37
:04037D00E0BFFB15CD
:04037E00E0BFFC17C9
:04037F0010800117D2
:040380001009883A9E
:040381000140FD84B6
:04038200E1BFFB17C5
:040383000000260050
:04038400E0BFFC17C3
:0403850010800117CC
:040386001009883A98
:040387000140FD0430
:04038800E1BFF917C1
:04038900000026004A
:04038A00E037883A96
:04038B00DFC00117B7
:04038C00DF00001777
:04038D00DEC00204C8
:04038E00F800283A11
:04038F00DEFFFB048E
:04039000DE00012E5C
:04039100003B68FACB
:04039200DF0004156F
:04039300DF0004047F
:04039400E13FFC1534
:04039500E17FFD15F2
:04039600E1BFFE15B0
:04039700E1FFFF156E
:04039800E0BFFC17AF
:0403990010C0731706
:04039A00E0BFFD17AC
:04039B0010C0001579
:04039C00E0BFFC17AB
:04039D0010C0741701
:04039E00E0BFFE17A7
:04039F0010C0001575
:0403A000E0BFFC17A7
:0403A10010C07517FC
:0403A200E0BFFF17A2
:0403A30010C0001571
:0403A400E0BFFC17A3
:0403A50010C07617F7
:0403A600E0800117DB
:0403A70010C000156D
:0403A800E037883A78
:0403A900DF0000175A
:0403AA00DEC00104AC
:0403AB00F800283AF4
:0403AC00DEFFF70475
:0403AD00DE00012E3F
:0403AE00003B68FAAE
:0403AF00DFC008158E
:0403B000DF0007154E
:0403B100DC00061551
:0403B200DF0007045D
:0403B300E13FFB1516
:0403B400E17FFC15D4
:0403B500E1BFFD1592
:0403B6003805883A44
:0403B700E0BFFE05A0
:0403B8000084E204D7
:0403B900E0BFF91593
:0403BA00E0BFFB178E
:0403BB001400011712
:0403BC00E13FFD1709
:0403BD00001C83009D
:0403BE008009883AF0
:0403BF00E17FFC17C7
:0403C000E1BFFD1785
:0403C100100F883A57
:0403C20000001B809C
:0403C300E0BFFA1588
:0403C400E0FFFE0355
:0403C500E0BFFA1784
:0403C6001880021E7B
:0403C7000005883A6B
:0403C8000000150616
:0403C900E0BFFC177E
:0403CA001080059802
:0403CB001000031EFD
:0403CC0001012C04FB
:0403CD00001B8A4047
:0403CE000000020623
:0403CF0001001E0407
:0403D000001B8A4044
:0403D100E0BFF91779
:0403D20010FFFFC455
:0403D300E0FFF91539
:0403D400103FE51ED3
:0403D500010000B46F
:0403D600211A910453
:0403D700E17FFC17AF
:0403D800E1BFFD176D
:0403D900001F818000
:0403DA00010000B46A
:0403DB00211A75046A
:0403DC00001F8180FD
:0403DD0000BFE484F5
:0403DE00E6FFFF0433
:0403DF00DFC0021762
:0403E000DF00011722
:0403E100DC00001725
:0403E200DEC0030472
:0403E300F800283ABC
:0403E400DEFFFB0439
:0403E500DE00012E07
:0403E600003B68FA76
:0403E700DFC004155A
:0403E800DF0003151A
:0403E900DF0003042A
:0403EA00E13FFE15DC
:0403EB00E17FFF159A
:0403EC00E0BFFE1759
:0403ED001080011764
:0403EE001009883A30
:0403EF000140058440
:0403F000E1BFFF1753
:0403F10000002600E2
:0403F200E0BFFD1556
:0403F300E0BFFD1753
:0403F4001000020EE5
:0403F500E0BFFD1751
:0403F60000000E06EF
:0403F700010000B44D
:0403F800211A9A0428
:0403F900014000B40B
:0403FA00295E8304F1
:0403FB00E1BFFF1748
:0403FC00001F8180DD
:0403FD00010000B447
:0403FE00211A750447
:0403FF00001F8180DA
:04040000E13FFE17C3
:04040100014005842D
:04040200E1BFFF1740
:04040300000F883A24
:040404000000EB0009
:04040500E037883A1A
:04040600DFC001173B
:04040700DF000017FB
:04040800DEC002044C
:04040900F800283A95
:04040A00DEFFFD0410
:04040B00DE00012EE0
:04040C00003B68FA4F
:04040D00DF000215F5
:04040E00DF00020405
:04040F00E13FFE15B6
:04041000E17FFF1574
:04041100E0BFFF1732
:040412001000081EB0
:04041300E0BFFF1730
:040414001000041EB2
:04041500E0FFFE17EF
:0404160000935F34BC
:04041700109B4004F2
:0404180010C00236D8
:040419000005883A18
:04041A0000000B06CD
:04041B00E0BFFF1728
:04041C001000081EA6
:04041D00E0BFFF1726
:04041E001000041EA8
:04041F00E0FFFE17E5
:0404200000BB9AF48F
:04042100108A000439
:0404220010C00236CE
:040423000080004411
:0404240000000106CD
:0404250000800084CF
:04042600E037883AF9
:04042700DF000017DB
:04042800DEC001042D
:04042900F800283A75
:04042A00DEFFFD04F0
:04042B00DE00012EC0
:04042C00003B68FA2F
:04042D00DF000215D5
:04042E00DF000204E5
:04042F00E13FFE1596
:04043000E17FFF1554
:04043100E13FFF1791
:04043200200897FA0D
:04043300E17FFE1750
:040434002804D07A4E
:040435002084B03A35
:04043600E13FFF178C
:040437002006D07A51
:04043800E037883AE7
:04043900DF000017C9
:04043A00DEC001041B
:04043B00F800283A63
:04043C00DEFFFE04DD
:04043D00DE00012EAE
:04043E00003B68FA1D
:04043F00DF000115C4
:04044000DF000104D4
:04044100E13FFF1583
:04044200E0BFFF1701
:04044300100B883AD8
:04044400000D883AE5
:040445002945883A83
:040446001149803A9E
:040447003187883A37
:0404480020C9883A05
:040449002007883AC6
:04044A00100B883AD1
:04044B00180D883AC6
:04044C002807883ABB
:04044D003009883AB0
:04044E001805883ACB
:04044F002007883AC0
:04045000E037883ACF
:04045100DF000017B1
:04045200DEC0010403
:04045300F800283A4B
:04045400DEFFF304D0
:04045500DE00012E96
:04045600003B68FA05
:04045700DFC00C15E1
:04045800DF000B15A1
:04045900DF000B04B1
:04045A00E13FFC156D
:04045B00E17FFD152B
:04045C00E1BFFE15E9
:04045D00E1FFFF15A7
:04045E00E0BFFC17E8
:04045F0010800117F1
:04046000E0BFF915EB
:04046100010000B4E2
:04046200211A9F04B8
:04046300014000B4A0
:04046400295E890480
:04046500E1BFFD17DF
:04046600E1FFFE179D
:04046700001F818071
:04046800010000B4DB
:04046900211A7504DB
:04046A00001F81806E
:04046B00E13FFD1759
:04046C00E17FFE1717
:04046D000001028008
:04046E00E0BFFA15DC
:04046F00E0BFFA17D9
:04047000D88000151B
:04047100010000B4D2
:04047200211AA404A3
:04047300014000B490
:04047400295E890470
:04047500E1BFFD17CF
:04047600E1FFFE178D
:04047700001F818061
:04047800010000B4CB
:04047900211A7504CB
:04047A00001F81805E
:04047B00E0BFFC17CB
:04047C0010C0441751
:04047D00E0BFFA17CB
:04047E001880021EC2
:04047F000005883AB2
:0404800000009206E0
:040481000100020470
:04048200001C8300D7
:040483001007883A9C
:04048400E0BFFC17C2
:04048500108030179C
:04048600108000C31F
:040487001080005C85
:0404880010803FCCD5
:04048900D880001502
:04048A00E13FF9173E
:04048B0001403EC42A
:04048C0001800204E5
:04048D00180F883A82
:04048E00000031C079
:04048F0000800044A5
:0404900010803FCCCD
:0404910010000E2623
:04049200E0BFFC17B4
:04049300108030178E
:04049400108000C311
:0404950010803FCCC8
:040496001000092623
:04049700E0BFFA17B1
:0404980010C01EE48E
:04049900008000B42B
:04049A001099D84499
:04049B001885883AFE
:04049C00E0BFF615B2
:04049D0000800A448D
:04049E00E0BFF715AF
:04049F00000008064B
:0404A000E0BFFA17A8
:0404A10010C039E46A
:0404A200008000B422
:0404A30010992B047D
:0404A4001885883AF5
:0404A500E0BFF615A9
:0404A600008013447B
:0404A700E0BFF715A6
:0404A800E0BFFC179E
:0404A9001080301778
:0404AA0010804883F3
:0404AB0010803FCCB2
:0404AC001000022614
:0404AD0000802004A7
:0404AE000000010643
:0404AF000005883A82
:0404B000E0BFFB1599
:0404B100E0BFFF1792
:0404B200108000CCEA
:0404B300100490FAA7
:0404B4001080009420
:0404B500E13FF91713
:0404B60001404DC4F0
:0404B700100D883A62
:0404B800000026001A
:0404B900E03FF81513
:0404BA0000003D06FB
:0404BB00E13FF9170D
:0404BC0001404C04AB
:0404BD00E1BFF8178C
:0404BE000000260014
:0404BF00E0FFF8174B
:0404C0001805883A59
:0404C1001085883AE0
:0404C20010C5883A9F
:0404C300E0FFF61749
:0404C4001885883AD5
:0404C50010800003A0
:0404C60010C03FCC57
:0404C700E0BFFB1780
:0404C8001884B03AAA
:0404C900E13FF917FF
:0404CA0001404C445D
:0404CB00100D883A4E
:0404CC000000260006
:0404CD00E0FFF8173D
:0404CE001805883A4B
:0404CF001085883AD2
:0404D00010C5883A91
:0404D100E0FFF6173B
:0404D2001885883AC7
:0404D3001080004352
:0404D40010803FCC89
:0404D500E13FF917F3
:0404D60001404C8411
:0404D700100D883A42
:0404D80000002600FA
:0404D900E0FFF81731
:0404DA001805883A3F
:0404DB001085883AC6
:0404DC0010C5883A85
:0404DD00E0FFF6172F
:0404DE001885883ABB
:0404DF001080008306
:0404E00010803FCC7D
:0404E100E13FF917E7
:0404E20001404CC4C5
:0404E300100D883A36
:0404E40000002600EE
:0404E500E0BFFF175E
:0404E600108000CCB6
:0404E700100490FA73
:0404E80010800194EB
:0404E900E13FF917DF
:0404EA0001404DC4BC
:0404EB00100D883A2E
:0404EC0000002600E6
:0404ED00E13FF917DB
:0404EE0001404D0478
:0404EF00000D883A3A
:0404F00000002600E2
:0404F100E13FF917D7
:0404F20001404D0474
:0404F300000D883A36
:0404F40000002600DE
:0404F500E0BFF81755
:0404F600108000442E
:0404F700E0BFF81555
:0404F800E0FFF81712
:0404F900E0BFF71752
:0404FA0018BFC03631
:0404FB00E0BFFF1748
:0404FC00108000CCA0
:0404FD00100490FA5D
:0404FE0010800094D6
:0404FF00E13FF917C9
:0405000001404DC4A5
:04050100100D883A17
:0405020000002600CF
:04050300E13FF917C4
:0405040001404D0461
:04050500000D883A23
:0405060000002600CB
:04050700E13FF917C0
:0405080001404D045D
:04050900000D883A1F
:04050A0000002600C7
:04050B00E13FF917BC
:04050C0001404DC499
:04050D00000D883A1B
:04050E0000002600C3
:04050F00E0BFFC1736
:04051000E0FFFA17F7
:0405110010C04415BD
:040512000005883A1E
:04051300E037883A0B
:04051400DFC001172C
:04051500DF000017EC
:04051600DEC002043D
:04051700F800283A86
:04051800DEFFFA0404
:04051900DE00012ED1
:04051A00003B68FA40
:04051B00DFC0051523
:04051C00DF000415E3
:04051D00DC000315E6
:04051E00DF000404F2
:04051F00E13FFD15A6
:04052000E17FFE1564
:04052100E0BFFD1723
:0405220014000117A9
:0405230001000804C7
:04052400001C830034
:040525001007883AF9
:04052600E0BFFE171D
:04052700108002033B
:0405280010803FCC34
:04052900D880001561
:04052A008009883A82
:04052B0001400984FE
:04052C00018008043E
:04052D00180F883AE1
:04052E00000031C0D8
:04052F00E0BFFD1715
:04053000140001179B
:0405310001001004B1
:04053200001C830026
:040533001007883AEB
:04053400E0BFFE170F
:0405350010800243ED
:0405360010803FCC26
:04053700D880001553
:040538008009883A74
:0405390001400984F0
:04053A000180100428
:04053B00180F883AD3
:04053C00000031C0CA
:04053D00E0BFFD1707
:04053E00140001178D
:04053F00E0BFFE1704
:040540001080000B1C
:0405410010BFFFCC1C
:040542001009883ADA
:0405430001407D04F2
:04054400001D7A40DC
:0405450010BFFFCC18
:0405460010800FCC46
:040547008009883A65
:0405480001404B041F
:04054900100D883ACF
:04054A000000260087
:04054B00E0BFFD17F9
:04054C00140001177F
:04054D00E0BFFE17F6
:04054E001080008B8E
:04054F0010BFFFCC0E
:040550001009883ACC
:0405510001407D04E4
:04055200001D7A40CE
:0405530010BFFFCC0A
:0405540010800FCC38
:040555008009883A57
:0405560001404B44D1
:04055700100D883AC1
:040558000000260079
:04055900E6FFFF04B6
:04055A00DFC00217E5
:04055B00DF000117A5
:04055C00DC000017A8
:04055D00DEC00304F5
:04055E00F800283A3F
:04055F00DEFFFA04BD
:04056000DE00012E8A
:04056100003B68FAF9
:04056200DFC00515DC
:04056300DF0004159C
:04056400DC0003159F
:04056500DF000404AB
:04056600E13FFD155F
:04056700E17FFE151D
:04056800E0BFFE17DB
:0405690010000B1E55
:04056A00E0BFFD17DA
:04056B001400011760
:04056C000100040482
:04056D00001C8300EB
:04056E00D80000159C
:04056F008009883A3D
:0405700001400284C0
:0405710001800404FD
:04057200100F883AA4
:04057300000031C093
:0405740000000F066E
:04057500E0BFFD17CF
:040576001400011755
:0405770001003C043F
:04057800001C8300E0
:040579001007883AA5
:04057A00E0BFFE17C9
:04057B0010BFFFC4EA
:04057C001085883A24
:04057D001080005496
:04057E00D88000150C
:04057F008009883A2D
:0405800001400284B0
:0405810001803C04B5
:04058200180F883A8C
:04058300000031C083
:04058400E6FFFF048B
:04058500DFC00217BA
:04058600DF0001177A
:04058700DC0000177D
:04058800DEC00304CA
:04058900F800283A14
:04058A00DEFFFB0491
:04058B00DE00012E5F
:04058C00003B68FACE
:04058D00DFC00415B2
:04058E00DF00031572
:04058F00DF00030482
:04059000E13FFF1533
:04059100010000B4B1
:04059200211AAC047A
:04059300014000B46F
:04059400295E8D044B
:04059500001F818042
:04059600010000B4AC
:04059700211A7504AC
:04059800001F81803F
:04059900E0BFFF17A9
:04059A0010800117B5
:04059B001009883A81
:04059C0001404FC407
:04059D000180008455
:04059E000000260033
:04059F00E03FFD1527
:0405A00000800404CF
:0405A100E0BFFE15A4
:0405A20000003B0614
:0405A300E0BFFF179F
:0405A40010C001176B
:0405A500E0BFFE179E
:0405A60010BFFFC4BF
:0405A700E0BFFE159E
:0405A800E0BFFE179B
:0405A9001809883A6B
:0405AA0001404E04BA
:0405AB00100D883A6D
:0405AC000000260025
:0405AD00E0BFFF1795
:0405AE0010800117A1
:0405AF001009883A6D
:0405B00001404E8434
:0405B100000D883A77
:0405B200000026001F
:0405B300E0BFFF178F
:0405B400110001171A
:0405B500008000B40E
:0405B600109A3484DF
:0405B700E0FFFD174D
:0405B80010C5883AA8
:0405B90010800003AB
:0405BA0010803FCCA2
:0405BB0001404E4469
:0405BC00100D883A5C
:0405BD000000260014
:0405BE00E0BFFF1784
:0405BF00110001170F
:0405C000008000B403
:0405C100109A3884D0
:0405C200E0FFFD1742
:0405C30010C5883A9D
:0405C40010800003A0
:0405C50010803FCC97
:0405C60001404EC4DE
:0405C700100D883A51
:0405C8000000260009
:0405C900E0BFFF1779
:0405CA001080011785
:0405CB001009883A51
:0405CC0001404FC4D7
:0405CD000180018424
:0405CE000000260003
:0405CF00E0BFFF1773
:0405D000108001177F
:0405D1001009883A4B
:0405D20001404F0491
:0405D300000D883A55
:0405D40000002600FD
:0405D500E0BFFF176D
:0405D6001080011779
:0405D7001009883A45
:0405D80001404F048B
:0405D900000D883A4F
:0405DA0000002600F7
:0405DB00E0BFFD1769
:0405DC001080004447
:0405DD00E0BFFD1569
:0405DE00E0BFFD1766
:0405DF001080041074
:0405E000103FC21EE8
:0405E100E0BFFF1761
:0405E200108001176D
:0405E3001009883A39
:0405E40001404FC4BF
:0405E500018000840D
:0405E60000002600EB
:0405E700E0BFFF175B
:0405E8001080011767
:0405E9001009883A33
:0405EA0001404F0479
:0405EB00000D883A3D
:0405EC0000002600E5
:0405ED00E0BFFF1755
:0405EE001080011761
:0405EF001009883A2D
:0405F00001404F0473
:0405F100000D883A37
:0405F20000002600DF
:0405F300E0BFFF174F
:0405F400108001175B
:0405F5001009883A27
:0405F60001404FC4AD
:0405F700000D883A31
:0405F80000002600D9
:0405F9000005883A37
:0405FA00E037883A24
:0405FB00DFC0011745
:0405FC00DF00001705
:0405FD00DEC0020456
:0405FE00F800283A9F
:0405FF00DEFFF50422
:04060000DE00012EE9
:04060100003B68FA58
:04060200DFC00A1536
:04060300DF000915F6
:04060400DC000815F9
:04060500DF00090405
:04060600E13FFA15C1
:04060700E17FFB157F
:040608003009883AF3
:040609003807883AEC
:04060A00E080021773
:04060B00E13FFC05CA
:04060C00E0FFFD0509
:04060D00E0BFFE0547
:04060E00E03FF815BC
:04060F00E0FFFC0309
:04061000E0BFFD0347
:04061100D880001578
:04061200010000B42F
:04061300211AAD04F7
:04061400014000B4ED
:04061500295E9504C1
:04061600E1BFFB172E
:04061700180F883AF6
:04061800001F8180BE
:04061900010000B428
:04061A00211A750428
:04061B00001F8180BB
:04061C00E0FFFB17E9
:04061D0000800074E5
:04061E001097A58408
:04061F0010C0022ED7
:0406200000BFFA8499
:040621000000390696
:04062200E0BFFB1723
:040623001009883AF8
:0406240001403E84CF
:04062500001D7A40FA
:04062600E0BFFB1521
:04062700E0BFFB171E
:040628001004D23AAE
:04062900E0BFF90530
:04062A00E0BFFB171B
:04062B00E0BFF945EE
:04062C00E0BFFA171A
:04062D00140001179D
:04062E0001001004B3
:04062F00001C830028
:04063000D8000015D9
:040631008009883A7A
:0406320001401F0460
:04063300018010042E
:04063400100F883AE1
:04063500000031C0D0
:04063600E0BFFC0322
:040637001000092680
:04063800E0BFFA170E
:0406390010C00117D5
:04063A00E0BFF90420
:04063B001809883AD8
:04063C0001401D0458
:04063D00100D883ADA
:04063E0001C0008473
:04063F0000003EC0B9
:04064000E0BFF8150A
:04064100E0BFFD0316
:040642001000092675
:04064300E0BFFA1703
:0406440010C00117CA
:04064500E0BFF90415
:040646001809883ACD
:0406470001401D84CD
:04064800100D883ACF
:0406490001C0008468
:04064A0000003EC0AE
:04064B00E0BFF815FF
:04064C00E0BFFE030A
:04064D0010000C2667
:04064E00E0BFFA17F8
:04064F00140001177B
:040650000100100491
:04065100001C830006
:040652001007883ACB
:0406530000800044DF
:04065400D880001535
:040655008009883A56
:0406560001401F043C
:04065700018010040A
:04065800180F883AB5
:04065900000031C0AC
:04065A00E0BFF817EE
:04065B00E6FFFF04B3
:04065C00DFC00217E2
:04065D00DF000117A2
:04065E00DC000017A5
:04065F00DEC00304F2
:04066000F800283A3C
:04066100DEFFF904BB
:04066200DE00012E87
:04066300003B68FAF6
:04066400DFC00615D8
:04066500DF00051598
:04066600DF000504A8
:04066700E13FFE155C
:04066800E17FFF151A
:04066900E03FFB155E
:04066A00E0BFFE17D8
:04066B001100011762
:04066C00E0BFFF17D5
:04066D0010800058A1
:04066E001000021E58
:04066F0000801D04E6
:04067000000001067F
:0406710000801D8464
:04067200E0FFFD04A4
:04067300100B883AA6
:04067400180D883A9B
:0406750001C000843C
:040676000000074039
:04067700E0BFFB15D0
:04067800E0BFFB17CD
:040679001000020E5D
:04067A00E0BFFB17CB
:04067B0000000B066A
:04067C00E0BFFD03DB
:04067D0010803FCCDE
:04067E001006923A96
:04067F00E0BFFD4398
:0406800010803FCCDB
:040681001884B03AEF
:04068200E0BFFC15C4
:04068300E0BFFC17C1
:0406840010803EA400
:04068500E0BFFC15C1
:04068600E0BFFC17BE
:04068700E037883A96
:04068800DFC00117B7
:04068900DF00001777
:04068A00DEC00204C8
:04068B00F800283A11
:04068C00DEFFFE048B
:04068D00DE00012E5C
:04068E00003B68FACB
:04068F00DF00011572
:04069000DF00010482
:04069100E13FFF1531
:04069200E0FFFF176F
:040693000080BEF431
:0406940010BC1FC4B3
:0406950010C0023659
:040696000005883A99
:040697000000070652
:04069800E0FFFF1769
:0406990000810B349D
:04069A001087600461
:04069B0010C0023653
:04069C000080004496
:04069D000000010652
:04069E000080008454
:04069F00E037883A7E
:0406A000DF00001760
:0406A100DEC00104B2
:0406A200F800283AFA
:0406A300DEFFF10481
:0406A400DE00012E45
:0406A500003B68FAB4
:0406A600DFC00E158E
:0406A700DF000D154E
:0406A800DC400C1511
:0406A900DC000B1551
:0406AA00DF000D045C
:0406AB00E13FFA151C
:0406AC002805883A5B
:0406AD00E1BFFC1598
:0406AE00E1FFFD1556
:0406AF00E0BFFB05A8
:0406B000E0BFFA1796
:0406B100108001179D
:0406B200E0BFF81598
:0406B300E03FF61519
:0406B400E03FF71517
:0406B500E100021747
:0406B6000001A3009C
:0406B700E0BFF91592
:0406B800E0BFFC178C
:0406B900E0FFFD174A
:0406BA00E100021742
:0406BB00D90000154D
:0406BC00E13FF9170A
:0406BD00D90001154A
:0406BE00010000B483
:0406BF00211AB70441
:0406C000014000B441
:0406C100295E9A0410
:0406C200100D883A55
:0406C300180F883A4A
:0406C400001F818012
:0406C500010000B47C
:0406C600211A75047C
:0406C700001F81800F
:0406C800E0BFFC048F
:0406C9001009883A52
:0406CA00014003F4F4
:0406CB00295090041E
:0406CC00000D883A5B
:0406CD00001C76C0D7
:0406CE00E0BFFA1778
:0406CF001080301750
:0406D0001080004353
:0406D10010803FCC8A
:0406D2001000051EF1
:0406D300E0BFFA1773
:0406D400108030174B
:0406D500108002038C
:0406D60010803FCC85
:0406D70010000726E2
:0406D800E0BFF9176F
:0406D90010C0B9A4F0
:0406DA00008000B4E8
:0406DB001094D204A1
:0406DC001885883ABB
:0406DD00E0BFF51570
:0406DE000000090609
:0406DF000080004453
:0406E00010803FCC7B
:0406E10010000626D9
:0406E200E0BFF91765
:0406E30010C0B9A4E6
:0406E400008000B4DE
:0406E5001096FE84E9
:0406E6001885883AB1
:0406E700E0BFF51566
:0406E800E0BFFB0371
:0406E90010000226D5
:0406EA000080100478
:0406EB00E0BFF71560
:0406EC000000030601
:0406ED00E0BFF6175D
:0406EE001080004434
:0406EF00E0BFF6155D
:0406F000E0BFF6175A
:0406F10010800D4820
:0406F20010000D1EC9
:0406F300E0BFF61757
:0406F400108003A4CB
:0406F500E0FFF51716
:0406F6001885883AA1
:0406F7001080000B64
:0406F80010BFFFCC64
:0406F9001021883A0A
:0406FA000023883A17
:0406FB00E0BFFC1749
:0406FC00E0FFFD1707
:0406FD001C7FEF3639
:0406FE0088C0011E91
:0406FF00143FED3681
:04070000E0BFF61749
:04070100108003A4BD
:04070200E0FFF51708
:040703001885883A93
:040704001080000B56
:0407050010BFFFCC56
:04070600010000B43A
:04070700211AC304EC
:04070800014000B4F8
:04070900295E9A04C7
:04070A00100D883A0C
:04070B00E1FFF617FD
:04070C00001F8180C9
:04070D00010000B433
:04070E00211A750433
:04070F00001F8180C6
:04071000E0BFF71738
:0407110011408E8481
:04071200E0BFF61737
:04071300108003A4AB
:04071400E0FFF517F6
:040715001885883A81
:0407160010800083CC
:0407170010803FCC43
:04071800108003CC7E
:040719001080101428
:04071A00E13FF817AC
:04071B00100D883AFB
:04071C0000002600B3
:04071D00E0BFF7172B
:04071E0014008E44F1
:04071F00010003C40E
:04072000001C830036
:04072100100F883AF3
:04072200E0BFF61727
:04072300108003A49B
:04072400E0FFF517E6
:040725001885883A71
:04072600108000C37C
:0407270010803FCC33
:04072800D880001560
:04072900E13FF8179D
:04072A00800B883A7E
:04072B00018003C482
:04072C00000031C0D8
:04072D00E0BFF7171B
:04072E001140908462
:04072F00E0BFF6171A
:04073000108003A48E
:04073100E0FFF517D9
:040732001885883A64
:04073300108001032E
:0407340010803FCC26
:0407350010C001CC23
:04073600E0BFF61713
:04073700108003A487
:04073800E13FF51791
:040739002085883A55
:04073A0010800143E7
:04073B0010803FCC1F
:04073C00108000CC5D
:04073D00100490FA1A
:04073E001884B03A31
:04073F00E13FF81787
:04074000100D883AD6
:04074100000026008E
:04074200E0BFF71706
:0407430011408E04CF
:04074400E0BFF61705
:04074500108003A479
:04074600E0FFF517C4
:040747001885883A4F
:040748001080018399
:0407490010803FCC11
:04074A00108003CC4C
:04074B00100490FA0C
:04074C00E13FF8177A
:04074D00100D883AC9
:04074E000000260081
:04074F00E0BFF717F9
:04075000114094447C
:04075100E0BFF617F8
:04075200108003A46C
:04075300E0FFF517B7
:040754001885883A42
:04075500108001C34C
:0407560010803FCC04
:04075700108003CC3F
:04075800E13FF8176E
:04075900100D883ABD
:04075A000000260075
:04075B00E0BFF717ED
:04075C001080914434
:04075D00E13FF81769
:04075E00100B883ABA
:04075F00000D883AC7
:04076000000026006F
:04076100E0BFF717E7
:04076200108094046B
:04076300E13FF81763
:04076400100B883AB4
:0407650001801C04EF
:040766000000260069
:04076700E0BFF717E1
:0407680014008EC427
:0407690001000FC4B8
:04076A00001C8300EC
:04076B00100F883AA9
:04076C00E0BFF617DD
:04076D00108003A451
:04076E00E0FFF5179C
:04076F001885883A27
:0407700010800203F0
:0407710010803FCCE9
:04077200D880001516
:04077300E13FF81753
:04077400800B883A34
:0407750001800FC42C
:04077600000031C08E
:04077700E0BFF717D1
:0407780011408F8419
:04077900E0BFF617D0
:04077A00108003A444
:04077B00E0FFF5178F
:04077C001885883A1A
:04077D0010800243A3
:04077E0010803FCCDC
:04077F001004913A97
:0407800010C03FCC9A
:04078100E0BFF617C8
:04078200108003A43C
:04078300E13FF51746
:040784002085883A0A
:04078500108002835B
:0407860010803FCCD4
:04078700108003CC0F
:040788001884B03AE7
:04078900E13FF8173D
:04078A00100D883A8C
:04078B000000260044
:04078C00E0BFF717BC
:04078D0011408FC4C4
:04078E00E0BFF617BB
:04078F00108003A42F
:04079000E0FFF5177A
:040791001885883A05
:04079200108002C30E
:0407930010803FCCC7
:040794001004913A82
:0407950010C03FCC85
:04079600E0BFF617B3
:04079700108003A427
:04079800E13FF51731
:040799002085883AF5
:04079A0010800303C5
:04079B0010803FCCBF
:04079C00108003CCFA
:04079D001884B03AD2
:04079E00E13FF81728
:04079F00100D883A77
:0407A000000026002F
:0407A100E0BFF717A7
:0407A200114090046E
:0407A300E0BFF617A6
:0407A400108003A41A
:0407A500E0FFF51765
:0407A6001885883AF0
:0407A7001080034378
:0407A80010803FCCB2
:0407A900108003CCED
:0407AA00E13FF8171C
:0407AB00100D883A6B
:0407AC000000260023
:0407AD000005883A81
:0407AE00E6FFFE0460
:0407AF00DFC003178D
:0407B000DF0002174D
:0407B100DC40011710
:0407B200DC00001750
:0407B300DEC004049C
:0407B400F800283AE7
:0407B500DEFFF60469
:0407B600DE00012E32
:0407B700003B68FAA1
:0407B800DFC0091580
:0407B900DF00081540
:0407BA00DC00071543
:0407BB00DF0008044F
:0407BC00E13FFC1508
:0407BD00E17FFD15C6
:0407BE00E1BFFE1584
:0407BF00E0BFFC1784
:0407C000108001178D
:0407C100E0BFF81588
:0407C200E03FF91506
:0407C30001001FC44E
:0407C400001C830092
:0407C500E13FF81701
:0407C600E17FFD17BB
:0407C70001801FC4CA
:0407C800100F883A4C
:0407C90000001B8091
:0407CA001007883A52
:0407CB00E0BFFE1776
:0407CC0010C0021542
:0407CD00E13FF817F9
:0407CE0001404C0496
:0407CF000000150011
:0407D000E0BFFA1577
:0407D100E0BFFE1770
:0407D200108002177A
:0407D300E13FF817F3
:0407D40001404C0490
:0407D500100D883A41
:0407D60000002600F9
:0407D700E13FF817EF
:0407D80001404D048B
:0407D9000000150007
:0407DA00E0BFFB156C
:0407DB00E0BFFB1769
:0407DC001004D17ABA
:0407DD0010C000CC7C
:0407DE00E0BFFE1763
:0407DF0010C006152B
:0407E000E0BFFB1764
:0407E10010C007CC71
:0407E200E0BFFE175F
:0407E30010C0081525
:0407E4000100080404
:0407E500001C830071
:0407E600E13FF817E0
:0407E70001404D443C
:0407E8000180080480
:0407E900100F883A2B
:0407EA0000001B8070
:0407EB001007883A31
:0407EC00E0BFFE1755
:0407ED0010C007151C
:0407EE00E0BFFC1755
:0407EF0010C04417DB
:0407F000E0BFFE1751
:0407F10011000617D6
:0407F200008000B4CF
:0407F300109A3C8498
:0407F40018C7883A60
:0407F50018C7883A5F
:0407F6001907883A1D
:0407F70010C5883A67
:0407F800108000036A
:0407F90010C03FCC21
:0407FA0018C0201CE7
:0407FB0018FFE004FF
:0407FC00E0BFFC1747
:0407FD00114044174C
:0407FE00E0BFFE1743
:0407FF0011000817C6
:04080000008000B4C0
:04080100109A3F8486
:04080200280A913AF5
:040803002909883AFD
:040804001105883A18
:04080500108000035C
:0408060010803FCC53
:040807001080201C21
:0408080010BFE00439
:040809001887883A8A
:04080A00E0BFFE1736
:04080B0011000717BA
:04080C00D0A00184F3
:04080D002085883A80
:04080E001080000353
:04080F0010803FCC4A
:040810001080201C18
:0408110010BFE00430
:040812001885883A83
:040813001007883A08
:04081400E0BFFE172C
:0408150010C00315F7
:04081600E13FF817AF
:0408170001404C044C
:04081800E1BFFA172B
:0408190000002600B5
:04081A00E0BFFD1727
:04081B001400004481
:04081C00010007C40C
:04081D00001C830038
:04081E00E13FF817A7
:04081F00800B883A88
:04082000018007C488
:04082100100F883AF2
:0408220000001B8037
:040823001007883AF8
:04082400E0BFFE171C
:0408250010C00415E6
:04082600E0BFFD171B
:040827001400008435
:04082800010007C400
:04082900001C83002C
:04082A00E13FF8179B
:04082B00800B883A7C
:04082C00018007C47C
:04082D00100F883AE6
:04082E0000001B802B
:04082F001007883AEC
:04083000E0BFFE1710
:0408310010C00515D9
:04083200E0BFFE170E
:0408330010C00317D7
:04083400E0BFFE170C
:040835001080041714
:040836001887883A5D
:04083700E0BFFE1709
:040838001080051710
:040839001885883A5C
:04083A001007883AE1
:04083B00E0BFFE1705
:04083C0010C00115D2
:04083D00E0BFF91708
:04083E00E6FFFF04CE
:04083F00DFC00217FD
:04084000DF000117BD
:04084100DC000017C0
:04084200DEC003040D
:04084300F800283A57
:04084400DEFFF404DB
:04084500DE00012EA2
:04084600003B68FA11
:04084700DFC00B15EE
:04084800DF000A15AE
:04084900DC000915B1
:04084A00DF000A04BD
:04084B00E13FFC1578
:04084C00E17FFD1536
:04084D00E1BFFE15F4
:04084E00E0BFFC17F4
:04084F0010800117FD
:04085000E0BFF715F9
:04085100E03FF81577
:04085200E0BFFC17F0
:0408530010802917D1
:04085400E13FFC176D
:04085500100B883AC2
:04085600001BC900BA
:040857001009883AC2
:0408580000010F008C
:04085900100B883ABE
:04085A00180D883AB3
:04085B002809883AA6
:04085C00300B883A9B
:04085D000001028014
:04085E00E0BFF915E9
:04085F0001001FC4B1
:04086000001C8300F5
:04086100E13FF71765
:04086200E17FFD171E
:0408630001801FC42D
:04086400100F883AAF
:0408650000001B80F4
:04086600E0BFFA15E0
:04086700E0FFFA179D
:04086800E0BFFE17D8
:0408690010C00215A4
:04086A00E0BFF917DB
:04086B0010800624CF
:04086C0010803204C2
:04086D00E0FFFC1795
:04086E001885883A27
:04086F00E0BFFB15D6
:04087000E0BFFB17D3
:0408710010C0051797
:04087200E0BFFA17D2
:0408730018800E0ECD
:04087400E0BFFB17CF
:0408750010800517D3
:04087600E0FFFA178E
:040877001885C83ADE
:04087800E0BFFA15CE
:04087900E0BFFB17CA
:04087A0010C0011792
:04087B00E0BFFB17C8
:04087C00110003174D
:04087D00E0BFFA17C7
:04087E002085383A5F
:04087F001885883A16
:04088000E0BFF615CA
:04088100000003066A
:04088200E0BFFB17C1
:0408830010800117C9
:04088400E0BFF615C6
:04088500E0BFFD17BC
:0408860014000084D6
:04088700010007C4A1
:04088800001C8300CD
:04088900E13FF7173D
:04088A00800B883A1D
:04088B00018007C41D
:04088C00100F883A87
:04088D0000001B80CC
:04088E001007883A8D
:04088F00E0BFFE17B1
:0408900010C005157A
:04089100E0BFFE17AF
:04089200E0FFF61776
:0408930010C001157B
:04089400E0BFF817B2
:04089500E6FFFF0477
:04089600DFC00217A6
:04089700DF00011766
:04089800DC00001769
:04089900DEC00304B6
:04089A00F800283A00
:04089B00DEFFF50483
:04089C00DE00012E4B
:04089D00003B68FABA
:04089E00DFC00A1598
:04089F00DF00091558
:0408A000DC0008155B
:0408A100DF00090467
:0408A200E13FFC1521
:0408A300E17FFD15DF
:0408A400E1BFFE159D
:0408A500E0BFFC179D
:0408A60010800117A6
:0408A700E0BFFA159F
:0408A800E03FF9151F
:0408A900E0BFFD1798
:0408AA001080005862
:0408AB001000071E14
:0408AC00E03FF8052C
:0408AD000080AC0417
:0408AE00E0BFF7159B
:0408AF0000801004B1
:0408B000E0BFF84568
:0408B100E03FF885A7
:0408B2000000160626
:0408B300E0BFFD178E
:0408B4001080009818
:0408B5001000091E08
:0408B600008000843A
:0408B700E0BFF805A1
:0408B8000080AD44CB
:0408B900E0BFF71590
:0408BA0000BFE00497
:0408BB00E0BFF8455D
:0408BC0000800104B3
:0408BD00E0BFF8851B
:0408BE0000000A0626
:0408BF00010000B480
:0408C000211ACB042A
:0408C100E17FFD17BF
:0408C200001F818012
:0408C300010000B47C
:0408C400211A75047C
:0408C500001F81800F
:0408C60000BFFA84F1
:0408C700E0BFF91580
:0408C80000004D06D9
:0408C900E43FF843CD
:0408CA00E0BFF84350
:0408CB001009883A4E
:0408CC00001C830089
:0408CD00E13FFA17F6
:0408CE00014000C421
:0408CF00800D883AD6
:0408D000100F883A43
:0408D10000001B8088
:0408D200E0BFFB1573
:0408D300E0BFFB1770
:0408D40010000C1EE6
:0408D500E0BFFE176B
:0408D6001080001777
:0408D700010000B468
:0408D800211AD0040D
:0408D900100B883A3E
:0408DA00001F8180FA
:0408DB00010000B464
:0408DC00211A750464
:0408DD00001F8180F7
:0408DE0000BFFD4416
:0408DF00E0BFF91568
:0408E00000003506D9
:0408E100E13FFA17E2
:0408E20001403E840F
:0408E30000001500FC
:0408E400E0BFFB1561
:0408E500E0BFF80375
:0408E600E0FFFB171D
:0408E7001884D83A5F
:0408E800108000CCB0
:0408E900E0BFFB155C
:0408EA00E0BFFB1759
:0408EB001080005821
:0408EC001000161EC4
:0408ED00E13FFA17D6
:0408EE000140ACC455
:0408EF0000001500F0
:0408F000E0BFFB1555
:0408F100E0BFF883E9
:0408F200E0FFFB1711
:0408F3001884D83A53
:0408F400108001CCA3
:0408F500E0BFFB1550
:0408F600E0BFFB174D
:0408F700108001600C
:0408F80010000A1EC4
:0408F900010000B446
:0408FA00211AD604E5
:0408FB00E17FFB1787
:0408FC00001F8180D8
:0408FD00010000B442
:0408FE00211A750442
:0408FF00001F8180D5
:0409000000BFFD44F3
:04090100E0BFF91545
:0409020000001306D8
:04090300008000442C
:0409040010803FCC54
:0409050010000B26AD
:04090600E0BFFC173B
:040907001080301715
:04090800108000C398
:0409090010803FCC4F
:04090A0010000626AD
:04090B00E13FFC17B5
:04090C00E17FF71779
:04090D00E1BFFE1731
:04090E000001ED40B7
:04090F00E0BFF91537
:0409100000000506D8
:04091100E13FFC17AF
:04091200E17FF71773
:04091300E1BFFE172B
:0409140000021100CC
:04091500E0BFF91531
:04091600E0BFF9172E
:04091700E6FFFF04F4
:04091800DFC0021723
:04091900DF000117E3
:04091A00DC000017E6
:04091B00DEC0030433
:04091C00F800283A7D
:04091D00DEFFF804FD
:04091E00DE00012EC8
:04091F00003B68FA37
:04092000DFC0071518
:04092100DF000615D8
:04092200DF000604E8
:04092300E13FFE159D
:040924002805883AE0
:04092500E0BFFF052B
:04092600E0BFFE1719
:040927001080011724
:04092800E0BFFB151C
:04092900010003C402
:04092A00001C83002A
:04092B00E13FFB1796
:04092C00014005C4BD
:04092D00018003C47E
:04092E00100F883AE4
:04092F0000001B8029
:04093000E0BFFC0523
:04093100E0BFFE170E
:04093200E0FFFC03E3
:0409330010C03105BA
:04093400E0FFFC03E1
:04093500E0BFFF031D
:040936001880091EFE
:04093700E0BFFF031B
:04093800010000B406
:04093900211AE0049B
:04093A00100B883ADC
:04093B00001F818098
:04093C00010000B402
:04093D00211A750402
:04093E00001F818095
:04093F000000570657
:04094000E0FFFC03D5
:04094100E0BFFF0311
:04094200010000B4FC
:04094300211AEC0485
:04094400180B883ACA
:04094500100D883ACF
:04094600001F81808D
:04094700010000B4F7
:04094800211A7504F7
:04094900001F81808A
:04094A00E13FFB1777
:04094B00014005045E
:04094C000000150092
:04094D00E0BFFA15F8
:04094E00E0BFFA17F5
:04094F001080040C04
:040950001000082665
:04095100E0FFFA17B2
:0409520000BFFBC423
:040953001884703A5A
:04095400E0BFFA15F1
:04095500E0BFFE17EA
:0409560000C0004499
:0409570010C0450582
:040958000000020693
:04095900E0BFFE17E6
:04095A00100045053F
:04095B00E0BFFC03FA
:04095C00100004265D
:04095D00E0FFFA17A6
:04095E0000BFFF8453
:04095F001884703A4E
:04096000E0BFFA15E5
:04096100E0BFFF03F1
:0409620010C001A020
:040963001800091E51
:0409640010C001C8F6
:040965001800031E55
:04096600108001609C
:0409670010000D1E51
:040968000000140671
:0409690010C0022098
:04096A001800061E4D
:04096B00108002A056
:04096C001000102641
:04096D00E0BFFA17D6
:04096E0010800814D9
:04096F00E0BFFA15D6
:040970000000150668
:04097100E0BFFA17D2
:0409720010801014CD
:04097300E0BFFA15D2
:040974000000110668
:04097500E0FFFA178E
:0409760000BFE7C413
:040977001884703A36
:04097800E0BFFA15CD
:04097900E0BFFA17CA
:04097A001080015494
:04097B00E0BFFA15CA
:04097C000000090668
:04097D00E0BFFF03D5
:04097E00010000B4C0
:04097F00211AF6043F
:04098000100B883A96
:04098100001F818052
:04098200010000B4BC
:04098300211A7504BC
:04098400001F81804F
:040985000000110657
:04098600E13FFB173B
:040987000140050422
:0409880001800144A5
:040989000000260044
:04098A00E13FFB1737
:04098B00014005041E
:04098C00E1BFFA17B6
:04098D000000260040
:04098E00E0BFFD15B4
:04098F00E0BFFD17B1
:040990001000062627
:04099100010000B4AD
:04099200211B000421
:04099300001F818040
:04099400010000B4AA
:04099500211A7504AA
:04099600001F81803D
:040997000001883A99
:04099800E037883A82
:04099900DFC00117A3
:04099A00DF00001763
:04099B00DEC00204B4
:04099C00F800283AFD
:04099D00DEFFFA047B
:04099E00DE00012E48
:04099F00003B68FAB7
:0409A000DFC005159A
:0409A100DF0004155A
:0409A200DF0004046A
:0409A300E13FFF151C
:0409A400E0BFFF179A
:0409A50010800117A6
:0409A600E0BFFD159C
:0409A700E13FFD1718
:0409A8000140050401
:0409A9000000150035
:0409AA00E0BFFC1599
:0409AB00E0FFFC1756
:0409AC0000BFE6841E
:0409AD001884703A00
:0409AE00E0BFFC1595
:0409AF00E0BFFF178F
:0409B000108031037F
:0409B10010803FCCA7
:0409B20010C002204F
:0409B3001800101EFA
:0409B40010C0024825
:0409B5001800051E03
:0409B60010C001600C
:0409B7001800101EF6
:0409B800108001A00A
:0409B9001000061E06
:0409BA00000018061B
:0409BB0010C002A0C6
:0409BC001800031EFE
:0409BD0010803FE087
:0409BE0010000D1EFA
:0409BF00000013061B
:0409C000E0BFFC1781
:0409C1001080081486
:0409C200E0BFFC1581
:0409C30000001A0610
:0409C400E0BFFC177D
:0409C500108010147A
:0409C600E0BFFC157D
:0409C7000000160610
:0409C800E0BFFC1779
:0409C9001080005446
:0409CA00E0BFFC1579
:0409CB000000120610
:0409CC00010000B472
:0409CD00211B0604E0
:0409CE00001F818005
:0409CF00010000B46F
:0409D000211A75046F
:0409D100001F818002
:0409D20000003106EA
:0409D300E0BFFF176B
:0409D400108031035B
:0409D50010803FCC83
:0409D600010000B468
:0409D700211B1104CB
:0409D800100B883A3E
:0409D900001F8180FA
:0409DA00010000B464
:0409DB00211A750464
:0409DC00001F8180F7
:0409DD0000002606EA
:0409DE00E13FFD17E1
:0409DF0001400504CA
:0409E000018001444D
:0409E10000002600EC
:0409E200E13FFD17DD
:0409E30001400504C6
:0409E400E1BFFC175C
:0409E50000002600E8
:0409E600E0BFFE155B
:0409E700E0BFFE1758
:0409E80010000726CE
:0409E900010000B455
:0409EA00211B1A04AF
:0409EB00001F8180E8
:0409EC00010000B452
:0409ED00211A750452
:0409EE00001F8180E5
:0409EF0000001406EA
:0409F000E0BFFF174E
:0409F100108045032A
:0409F20010803FCC66
:0409F30010001026BA
:0409F400E0BFFC174D
:0409F5001080041456
:0409F600E0BFFC154D
:0409F700E13FFD17C8
:0409F80001400504B1
:0409F900E1BFFC1747
:0409FA0000002600D3
:0409FB00E0BFFE1546
:0409FC00E0BFFE1743
:0409FD0010000626BA
:0409FE00010000B440
:0409FF00211B1A049A
:040A0000001F8180D2
:040A0100010000B43C
:040A0200211A75043C
:040A0300001F8180CF
:040A04000001883A2B
:040A0500E037883A14
:040A0600DFC0011735
:040A0700DF000017F5
:040A0800DEC0020446
:040A0900F800283A8F
:040A0A00DEFFF70410
:040A0B00DE00012EDA
:040A0C00003B68FA49
:040A0D00DFC0081529
:040A0E00DF000715E9
:040A0F00DC000615EC
:040A1000DF000704F8
:040A1100E13FFC15B0
:040A1200E17FFD156E
:040A1300E1BFFE152C
:040A1400E0BFFC172C
:040A15001080011735
:040A1600E0BFFB152D
:040A1700E03FFA15AD
:040A1800E0BFFE1726
:040A19001080021730
:040A1A0010800A68D6
:040A1B001000081EA1
:040A1C00E0BFFE1722
:040A1D00108004172A
:040A1E0010800668D6
:040A1F001000041EA1
:040A2000E0BFFE171E
:040A21001080051725
:040A22001080083008
:040A23001000181E89
:040A2400010000B419
:040A2500211B22046B
:040A260001400A047D
:040A2700001F8180AB
:040A2800010000B415
:040A2900211A750415
:040A2A00001F8180A8
:040A2B00010000B412
:040A2C00211B2E0458
:040A2D00014006047A
:040A2E00001F8180A4
:040A2F00010000B40E
:040A3000211A75040E
:040A3100001F8180A1
:040A3200010000B40B
:040A3300211B3A0445
:040A3400014007C4B2
:040A3500001F81809D
:040A3600010000B407
:040A3700211A750407
:040A3800001F81809A
:040A390000BFFA847C
:040A3A00E0BFFA150A
:040A3B0000004F0662
:040A3C00E0BFFE1702
:040A3D00108001170D
:040A3E000080060E20
:040A3F00010000B4FE
:040A4000211B43042F
:040A4100001F818091
:040A4200010000B4FB
:040A4300211A7504FB
:040A4400001F81808E
:040A4500E0BFFE17F9
:040A46001080021703
:040A470010000F1E6E
:040A4800E0BFFE17F6
:040A490010800417FE
:040A4A0010000C1E6E
:040A4B00E0BFFE17F3
:040A4C0010800517FA
:040A4D001000091E6E
:040A4E00010000B4EF
:040A4F00211B4E0415
:040A5000001F818082
:040A5100010000B4EC
:040A5200211A7504EC
:040A5300001F81807F
:040A540000BFFA8461
:040A5500E0BFFA15EF
:040A56000000340662
:040A570001001FC4B7
:040A5800001C8300FB
:040A59001007883AC0
:040A5A00E0BFFE17E4
:040A5B0010800217EE
:040A5C00D880001529
:040A5D00E13FFB1763
:040A5E00E17FFD1720
:040A5F0001801FC42F
:040A6000180F883AA9
:040A6100000031C0A0
:040A6200E0BFFD17DD
:040A63001400004437
:040A6400010007C4C2
:040A6500001C8300EE
:040A66001007883AB3
:040A6700E0BFFE17D7
:040A680010800417DF
:040A6900D88000151C
:040A6A00E13FFB1756
:040A6B00800B883A3A
:040A6C00018007C43A
:040A6D00180F883A9C
:040A6E00000031C093
:040A6F00E0BFFC17D1
:040A700010803017AB
:040A7100108029C305
:040A720010803FCCE5
:040A730010000E263B
:040A7400E0BFFD17CB
:040A750014000084E5
:040A7600010007C4B0
:040A7700001C8300DC
:040A78001007883AA1
:040A7900E0BFFE17C5
:040A7A0010800517CC
:040A7B00D88000150A
:040A7C00E13FFB1744
:040A7D00800B883A28
:040A7E00018007C428
:040A7F00180F883A8A
:040A8000000031C081
:040A81000000090662
:040A8200E0BFFE17BC
:040A830010800517C3
:040A84001000062632
:040A8500010000B4B8
:040A8600211B5D04CF
:040A8700001F81804B
:040A8800010000B4B5
:040A8900211A7504B5
:040A8A00001F818048
:040A8B00E0BFFA17B7
:040A8C00E6FFFF047E
:040A8D00DFC00217AD
:040A8E00DF0001176D
:040A8F00DC00001770
:040A9000DEC00304BD
:040A9100F800283A07
:040A9200DEFFF5048A
:040A9300DE00012E52
:040A9400003B68FAC1
:040A9500DFC00A159F
:040A9600DF0009155F
:040A9700DF0009046F
:040A9800E13FFD1528
:040A9900E17FFE15E6
:040A9A00E1BFFF15A4
:040A9B00E0BFFD17A4
:040A9C0010800117AE
:040A9D00E0BFF915A8
:040A9E00E03FF81528
:040A9F00E0BFFF179E
:040AA00010800217A9
:040AA10010BFFFD8AB
:040AA2001000071E1B
:040AA300E0BFFF179A
:040AA40010800417A3
:040AA50010BFFFD8A7
:040AA6001000031E1B
:040AA700E0BFFF1796
:040AA800108005179E
:040AA900100006260D
:040AAA00010000B493
:040AAB00211B68049F
:040AAC00001F818026
:040AAD00010000B490
:040AAE00211A750490
:040AAF00001F818023
:040AB000E0BFFD178F
:040AB1001080291771
:040AB200E13FFD170C
:040AB300100B883A62
:040AB400001BC9005A
:040AB5001009883A62
:040AB60000010F002C
:040AB700100B883A5E
:040AB800180D883A53
:040AB9002809883A46
:040ABA00300B883A3B
:040ABB0000010280B4
:040ABC00E0BFFA1588
:040ABD00E0BFFA1785
:040ABE00108006247A
:040ABF00108032046D
:040AC000E0FFFD173F
:040AC1001885883AD2
:040AC200E0BFFB1581
:040AC300E0BFFF177A
:040AC40010C0011746
:040AC500E0BFFB177C
:040AC6001080011784
:040AC7001880051678
:040AC800E0BFFF1775
:040AC9001080011781
:040ACA00E0FFFB1737
:040ACB0018C0021736
:040ACC001880110E6F
:040ACD00E0BFFF1770
:040ACE0011400117BB
:040ACF00E0BFFB1772
:040AD00010C001173A
:040AD100E0BFFB1770
:040AD2001080021777
:040AD300010000B46A
:040AD400211B750469
:040AD500180D883A36
:040AD600100F883A3B
:040AD700001F8180FB
:040AD800010000B465
:040AD900211A750465
:040ADA00001F8180F8
:040ADB0000BFFA84DA
:040ADC00E0BFF8156A
:040ADD0000001906F6
:040ADE00E0BFFF175F
:040ADF0010C001172B
:040AE000E0BFFB1761
:040AE1001080011769
:040AE2001887C83A6F
:040AE300E0BFFB175E
:040AE4001080031764
:040AE5001809883A2A
:040AE600100B883A2F
:040AE700001D6E4040
:040AE8001007883A31
:040AE900E0BFFB1758
:040AEA00108005175C
:040AEB001885883AA8
:040AEC00E0BFFC1556
:040AED0001001FC421
:040AEE00001C830065
:040AEF001007883A2A
:040AF000E0BFFC1750
:040AF100D880001594
:040AF200E13FF917D0
:040AF300E17FFE178A
:040AF40001801FC49A
:040AF500180F883A14
:040AF600000031C00B
:040AF700E0BFF8174D
:040AF800E037883A21
:040AF900DFC0011742
:040AFA00DF00001702
:040AFB00DEC0020453
:040AFC00F800283A9C
:040AFD00DEFFF6041E
:040AFE00DE00012EE7
:040AFF00003B68FA56
:040B0000DFC0091534
:040B0100DF000815F4
:040B0200DF00080404
:040B0300E13FFD15BC
:040B0400E17FFE157A
:040B0500E1BFFF1538
:040B0600E0BFFD1738
:040B07001080011742
:040B0800E0BFFB153A
:040B0900E03FFA15BA
:040B0A00E0BFFE1733
:040B0B0010800058FE
:040B0C001000041EB3
:040B0D00E03FF905C7
:040B0E0000804244DD
:040B0F00E0BFF81536
:040B100000001206C9
:040B1100E0BFFE172C
:040B120010800098B7
:040B13001000051EAB
:040B140000800084D9
:040B1500E0BFF9053F
:040B16000080430414
:040B1700E0BFF8152E
:040B180000000A06C9
:040B1900010000B423
:040B1A00211ACB04CD
:040B1B00E17FFE1761
:040B1C00001F8180B5
:040B1D00010000B41F
:040B1E00211A75041F
:040B1F00001F8180B2
:040B200000BFFA8494
:040B2100E0BFFA1522
:040B220000002F069A
:040B2300E13FFB179C
:040B240001403E84CA
:040B250000001500B7
:040B2600E0BFFC151B
:040B2700E0BFF9032F
:040B2800E0FFFC17D7
:040B29001884D83A1A
:040B2A00108000CC6B
:040B2B00E0BFFC1516
:040B2C00E0BFFC1713
:040B2D001000072687
:040B2E00010000B40E
:040B2F00211B810401
:040B3000001F8180A1
:040B3100010000B40B
:040B3200211A75040B
:040B3300001F81809E
:040B340000001D069A
:040B350000800044F8
:040B360010803FCC20
:040B370010000B2679
:040B3800E0BFFD1706
:040B390010803017E1
:040B3A00108000C364
:040B3B0010803FCC1B
:040B3C001000062679
:040B3D00E13FFD1780
:040B3E00E17FF81744
:040B3F00E1BFFF17FC
:040B400000028280AD
:040B4100E0BFFA1502
:040B420000000506A4
:040B4300E13FFD177A
:040B4400E17FF8173E
:040B4500E1BFFF17F6
:040B46000002A48085
:040B4700E0BFFA15FC
:040B4800E0BFFA17F9
:040B4900100008266A
:040B4A00010000B4F2
:040B4B00211B8A04DC
:040B4C00E17FF81736
:040B4D00001F818084
:040B4E00010000B4EE
:040B4F00211A7504EE
:040B5000001F818081
:040B51000001883ADD
:040B5200E0BFFA17EF
:040B5300E037883AC5
:040B5400DFC00117E6
:040B5500DF000017A6
:040B5600DEC00204F7
:040B5700F800283A40
:040B5800DEFFFB04BD
:040B5900DE00012E8B
:040B5A00003B68FAFA
:040B5B00DF0004159E
:040B5C00DF000404AE
:040B5D00E13FFC1563
:040B5E00E17FFD1521
:040B5F00E1BFFE15DF
:040B6000E1FFFF159D
:040B6100E0BFFC17DE
:040B6200E0FFFD179C
:040B630010C00015A9
:040B6400E0BFFC17DB
:040B6500E0FFFE1798
:040B660010C00115A5
:040B6700E0BFFC17D8
:040B6800E0FFFF1794
:040B690010C00215A1
:040B6A00E0BFFC17D5
:040B6B00E0C00117CE
:040B6C0010C003159D
:040B6D00E0BFFC17D2
:040B6E00E0C00217CA
:040B6F0010C0041599
:040B7000E0BFFC17CF
:040B7100E0C00317C6
:040B720010C0051595
:040B7300E037883AA5
:040B7400DF00001787
:040B7500DEC00104D9
:040B7600F800283A21
:040B7700DEFFF904A0
:040B7800DE00012E6C
:040B7900003B68FADB
:040B7A00DFC00615BD
:040B7B00DF0005157D
:040B7C00DF0005048D
:040B7D00E13FFF1540
:040B7E00E0BFFF17BE
:040B7F0010803204AC
:040B8000E0BFFE15BF
:040B810000800044AC
:040B8200D880001502
:040B83000080134497
:040B8400D8800115FF
:040B8500D80002157D
:040B8600E13FFE1736
:040B8700000B883A9D
:040B880001800044A4
:040B890001C0134450
:040B8A000002D6008F
:040B8B00E0BFFF17B1
:040B8C001080380499
:040B8D00E0BFFE15B2
:040B8E00008000449F
:040B8F00D8800015F5
:040B9000008013448A
:040B9100D8800115F2
:040B9200008000449B
:040B9300D8800215EF
:040B9400E13FFE1728
:040B9500000B883A8F
:040B960001BFFF0498
:040B970001C011C4C4
:040B98000002D60081
:040B9900E0BFFF17A3
:040B9A0010803E0485
:040B9B00E0BFFE15A4
:040B9C000080004491
:040B9D00D8800015E7
:040B9E00008013447C
:040B9F00D8800115E4
:040BA00000800104CC
:040BA100D8800215E1
:040BA200E13FFE171A
:040BA300000B883A81
:040BA40001BFFD840C
:040BA50001C00F84F8
:040BA6000002D60073
:040BA7000005883A83
:040BA800E037883A70
:040BA900DFC0011791
:040BAA00DF00001751
:040BAB00DEC00204A2
:040BAC00F800283AEB
:040BAD00DEFFF30470
:040BAE00DE00012E36
:040BAF00003B68FAA5
:040BB000DFC00C1581
:040BB100DF000B1541
:040BB200DC000A1544
:040BB300DF000B0450
:040BB400E13FFE150A
:040BB500E0BFFE1788
:040BB6001080011793
:040BB700E0BFF8158E
:040BB800E0BFFE1785
:040BB90010801E1773
:040BBA00E13FFE1702
:040BBB00100B883A59
:040BBC00001BC90051
:040BBD00E0BFF91587
:040BBE00E0BFFE177F
:040BBF00108030175B
:040BC0001080471743
:040BC100E0BFFA1582
:040BC200E0BFFA177F
:040BC3001080322448
:040BC4001020D07AB3
:040BC500E0BFF9177D
:040BC6001009883A50
:040BC70001407D0468
:040BC800001D7A4052
:040BC900010035B43E
:040BCA002127E004FB
:040BCB00100B883A49
:040BCC00001D7A404E
:040BCD008085883A5D
:040BCE00E0BFF61579
:040BCF00E0BFF61776
:040BD0001080F9C4D4
:040BD1001009883A45
:040BD2000140FA04E0
:040BD300001D7A4047
:040BD4001007883A44
:040BD500E0BFFE1768
:040BD6001080301744
:040BD70010802B83DC
:040BD80010803FCC7E
:040BD9001885883AB9
:040BDA00E0BFF6156D
:040BDB00E0BFF6176A
:040BDC0010803FCC7A
:040BDD00108007E895
:040BDE001000031EE2
:040BDF00E0BFF61766
:040BE00010803FCC76
:040BE1000080070E7B
:040BE200E0BFF61763
:040BE30010C03FCC33
:040BE40018C00830FD
:040BE5001800011ED5
:040BE600008007C4C0
:040BE70010803FCC6F
:040BE8000000010602
:040BE9000005883A41
:040BEA00E0BFF6155D
:040BEB0001000FC432
:040BEC00001C830066
:040BED001007883A2B
:040BEE00E0BFF61757
:040BEF00D880001595
:040BF000E13FF817D2
:040BF1000140088433
:040BF20001800FC4AB
:040BF300180F883A15
:040BF400000031C00C
:040BF500E0BFFB154D
:040BF600E0BFFA174B
:040BF70014001904C9
:040BF800E0BFF9174A
:040BF9001009883A1D
:040BFA000140FA04B8
:040BFB00001D7A401F
:040BFC008085383A7E
:040BFD00E0BFF6154A
:040BFE00E0FFF61707
:040BFF00008003F47B
:040C000010908FC4FD
:040C01001885883A90
:040C02001009883A13
:040C0300014003F4B5
:040C040029509004DF
:040C0500001D7A4014
:040C06001080004416
:040C0700E0BFF6153F
:040C0800E0BFF6173C
:040C090010803FCC4C
:040C0A00108007E867
:040C0B001000031EB4
:040C0C00E0BFF61738
:040C0D0010803FCC48
:040C0E000080070E4D
:040C0F00E0BFF61735
:040C100010C03FCC05
:040C110018C00830CF
:040C12001800011EA7
:040C1300008007C492
:040C140010803FCC41
:040C150000000106D4
:040C16000005883A13
:040C1700E0BFF6152F
:040C1800010007C40C
:040C1900001C830038
:040C1A001007883AFD
:040C1B00E0BFF61729
:040C1C00D880001567
:040C1D00E13FF817A4
:040C1E0001403F84CE
:040C1F00018007C485
:040C2000180F883AE7
:040C2100000031C0DE
:040C22001007883AF5
:040C2300E0BFFB171C
:040C240010C4B03A0E
:040C2500E0BFFB151C
:040C2600E0BFFA171A
:040C2700140032047F
:040C2800E0BFF91719
:040C29001009883AEC
:040C2A000141F4048C
:040C2B00001D7A40EE
:040C2C008085383A4D
:040C2D00E0BFF61519
:040C2E00E0FFF617D6
:040C2F00008003F44A
:040C300010908FC4CD
:040C31001885883A60
:040C32001009883AE3
:040C3300014003F485
:040C340029509004AF
:040C3500001D7A40E4
:040C3600108001C465
:040C3700E0BFF6150F
:040C3800E0BFF6170C
:040C390010803FCC1C
:040C3A00108007E837
:040C3B001000031E84
:040C3C00E0BFF61708
:040C3D0010803FCC18
:040C3E000080070E1D
:040C3F00E0BFF61705
:040C400010C03FCCD5
:040C410018C008309F
:040C42001800011E77
:040C4300008007C462
:040C440010803FCC11
:040C450000000106A4
:040C46000005883AE3
:040C4700E0BFFC15F9
:040C4800E0BFFC17F6
:040C4900E0BFF615FD
:040C4A00010007C4DA
:040C4B00001C830006
:040C4C001007883ACB
:040C4D00E0BFF617F7
:040C4E00D880001535
:040C4F00E13FF81772
:040C500001404444D7
:040C5100018007C453
:040C5200180F883AB5
:040C5300000031C0AC
:040C54001007883AC3
:040C5500E0BFFB17EA
:040C560010C4B03ADC
:040C5700E0BFFB15EA
:040C5800E0BFFE17E4
:040C590010803017C0
:040C5A00140031173A
:040C5B00E0BFF917E6
:040C5C001009883AB9
:040C5D000140FA0454
:040C5E00001D7A40BB
:040C5F008087383A18
:040C6000E0BFFC17DE
:040C61001081F424E6
:040C62001885C83AEF
:040C630010BE0C04AF
:040C6400E0BFF615E2
:040C6500E0BFF617DF
:040C66001080FA04FC
:040C67001009883AAE
:040C68000141F4044E
:040C6900001D7A40B0
:040C6A00E0BFF615DC
:040C6B00E0BFF617D9
:040C6C001000062648
:040C6D00E0BFF617D7
:040C6E0000C000B40E
:040C6F0010C0043677
:040C7000008000B44C
:040C710010BFFFC4ED
:040C72000000010677
:040C73000005883AB6
:040C7400E0BFF615D2
:040C7500E0BFFE17C7
:040C760010805F0388
:040C770010803FCCDE
:040C78001080006088
:040C79001000051E44
:040C7A00E0BFFE17C2
:040C7B0010805F4343
:040C7C0010803FCCD9
:040C7D00108000588B
:040C7E001000051E3F
